:020000040000FA
:100000000C9462000C948A000C948A000C948A0070
:100010000C948A000C948A000C948A000C948A0038
:100020000C948A000C948A000C948A000C948A0028
:100030000C948A000C948A000C948A000C948A0018
:100040000C942B030C948A000C948A000C948A0064
:100050000C948A000C948A000C948A000C948A00F8
:100060000C948A000C948A000000000023002600F3
:10007000290000000000240027002A0000000000E2
:10008000250028002B0004040404040404040202D4
:100090000202020203030303030301020408102007
:1000A0004080010204081020010204081020000012
:1000B0000008000201000003040700000000000027
:1000C0000000D20411241FBECFEFD8E0DEBFCDBFA9
:1000D00011E0A0E0B1E0E6E9FCE002C005900D927D
:1000E000A232B107D9F721E0A2E2B1E001C01D922E
:1000F000A734B207E1F710E0C2E6D0E004C02197D0
:10010000FE010E944306C136D107C9F70E94BA0317
:100110000C9449060C94000090E0FC01E255FF4F5E
:100120002491FC01E656FF4F3491FC01EA57FF4F42
:10013000E491EE23C9F0222339F0233001F1A8F431
:10014000213019F1223029F1F0E0EE0FFF1FE458C1
:10015000FF4FA591B4918FB7F894EC91611126C02F
:1001600030953E233C938FBF08952730A9F0283067
:10017000C9F0243049F7809180008F7D03C08091C1
:1001800080008F7780938000DFCF84B58F7784BD28
:10019000DBCF84B58F7DFBCF8091B0008F778093CC
:1001A000B000D2CF8091B0008F7DF9CF3E2BDACF57
:1001B000CF93DF9390E0FC01E656FF4F24918A57DE
:1001C0009F4FFC0184918823D1F090E0880F991F04
:1001D000FC01EE58FF4FA591B491FC01E458FF4F8C
:1001E000C591D49161110EC09FB7F8948C91E22F04
:1001F000E0958E238C932881E223E8839FBFDF91D3
:10020000CF9108958FB7F894EC91E22BEC938FBFC8
:10021000F6CF3FB7F89480912B0190912C01A091DB
:100220002D01B0912E0126B5A89B05C02F3F19F0D6
:100230000196A11DB11D3FBFBA2FA92F982F882766
:10024000BC01CD01620F711D811D911D42E0660F41
:10025000771F881F991F4A95D1F70895AF92BF92D3
:10026000CF92DF92EF92FF920F931F93CF93DF9382
:100270006C017B018B01040F151FEB015E01AE18B1
:10028000BF08C017D10759F06991D601ED91FC91D3
:100290000190F081E02DC6010995892B79F7C50100
:1002A000DF91CF911F910F91FF90EF90DF90CF9052
:1002B000BF90AF900895089590E080E008958F92E8
:1002C0009F92AF92BF920F931F93CF93DF93CDB7BF
:1002D000DEB7A1970FB6F894DEBF0FBECDBF19A24F
:1002E000423008F44AE08E010F5D1F4F842E912C9E
:1002F000B12CA12CA50194010E942106E62FB90181
:10030000CA01EA3044F5E05DD801EE938D01232B5C
:10031000242B252B79F790E080E0109769F0FD0100
:1003200001900020E9F73197AF014A1B5B0BBD013B
:100330008FE291E00E942E01A1960FB6F894DEBFE5
:100340000FBECDBFDF91CF911F910F91BF90AF90A6
:100350009F908F900895E95CD7CFFC010190002019
:10036000E9F73197AF01481B590BBC018FE291E0CF
:100370000C942E01CF93DF93EC0160E08E810E94FC
:100380008C0061E08E810E948C0060E08E810E9472
:100390008C008BE891E00197F1F7DF91CF91089500
:1003A000CF92DF92EF92FF920F931F93CF93DF9341
:1003B0006C017C0187E0E80EF11CD0E0C0E0062F64
:1003C00010E0B8010C2E02C0759567950A94E2F70B
:1003D0006170F70181917F010E948C002196C430E9
:1003E000D10579F7C601DF91CF911F910F91FF9051
:1003F000EF90DF90CF900C94BA01CF92DF92EF9202
:10040000FF920F931F93CF93DF93EC01F62E642F8F
:100410008C810E948C008D818F3F19F060E00E94DA
:100420008C000F2D10E08F8584FF25C06E0187E0C2
:10043000C80ED11CF12CE12CB8010E2C02C0759510
:1004400067950A94E2F76170F60181916F010E944D
:100450008C00FFEFEF1AFF0A88E0E816F10461F75D
:10046000CE01DF91CF911F910F91FF90EF90DF9020
:10047000CF900C94BA01B80184E0759567958A9580
:10048000E1F7CE010E94D0016F2DCE01DF91CF9117
:100490001F910F91FF90EF90DF90CF900C94D001BF
:1004A00040E0682F8FE291E00C94FD01CF93DF9341
:1004B000823029F490913E01986090933E018093A0
:1004C00042011092430180E48093440180E18093D3
:1004D000450180E58093460161E0809133010E94EF
:1004E000D800809134018F3F19F061E00E94D8005C
:1004F00061E0809135010E94D800CFE2D1E09E01F9
:100500002F52314080913E0184FD0BC084E090E089
:1005100021962817390744F461E08E810E94D800A3
:10052000EECF88E090E0F4CF8BE39DE00197F1F708
:1005300060E0809133010E948C0060E08091350181
:100540000E948C00809134018F3F19F060E00E947E
:100550008C0080913E0184FD39C063E08FE291E020
:100560000E94D001CBE4D6E4CE010197F1F763E01D
:100570008FE291E00E94D0012197F1F763E08FE2D2
:1005800091E00E94D00183E592E00197F1F762E0EB
:100590008FE291E00E94D00180913E0180620E9432
:1005A000500284E080933F018CE00E94500281E081
:1005B0000E9450028BE39FE10197F1F782E0809364
:1005C000400186E0DF91CF910C94500280620E943E
:1005D00050028BE496E40197F1F780913E0180622E
:1005E0000E94500283E592E00197F1F780913E016D
:1005F00080620E945002D0CF41E00E94FD0181E064
:1006000090E00895CF92DF92EF92FF926C01990FE4
:10061000EE08FF08F7FE16C041E06DE28FE291E0C0
:100620000E94FD0166277727CB016C197D098E0991
:100630009F094AE00E945F010196FF90EF90DF90D2
:10064000CF9008954AE0C701B601FF90EF90DF9088
:10065000CF900C945F011F920F920FB60F9211244E
:100660002F933F938F939F93AF93BF9380912701D5
:1006700090912801A0912901B0912A013091260181
:1006800023E0230F2D3758F50196A11DB11D2093AE
:1006900026018093270190932801A0932901B0930C
:1006A0002A0180912B0190912C01A0912D01B091F4
:1006B0002E010196A11DB11D80932B0190932C0159
:1006C000A0932D01B0932E01BF91AF919F918F9177
:1006D0003F912F910F900FBE0F901F90189526E815
:1006E000230F0296A11DB11DD2CFCF92DF92EF92C0
:1006F000FF920F931F93E82FF92F05C001501109A6
:100700002109310961F1908196239417B9F305C04D
:10071000015011092109310911F190819623941397
:10072000F7CFC12CD12CE12CF12C0AC08FEFC81AC5
:10073000D80AE80AF80A0C151D052E053F0579F0C0
:1007400080818623841791F36C2D7D2D8E2D9F2D16
:100750001F910F91FF90EF90DF90CF90089560E090
:1007600070E080E090E01F910F91FF90EF90DF909C
:10077000CF900895789484B5826084BD84B58160FB
:1007800084BD85B5826085BD85B5816085BD80915C
:100790006E00816080936E001092810080918100D4
:1007A00082608093810080918100816080938100CC
:1007B000809180008160809380008091B10084608E
:1007C0008093B1008091B00081608093B0008091EF
:1007D0007A00846080937A0080917A0082608093AE
:1007E0007A0080917A00816080937A0080917A000B
:1007F000806880937A001092C10082E00E945602C5
:1008000061E089E00E94D80060E08AE00E94D800A0
:10081000C3E0D0E023E2A22EB12C30E9232E30E059
:10082000332E40E0842E40E0942E60E089E00E9468
:100830008C00CE010197F1F761E089E00E948C0005
:10084000C5010197F1F760E089E00E948C00E4EABD
:10085000F0E06491F1018491E82FF0E0EE0FFF1FCA
:10086000E859FF4F8591949100E412E42FE030E0C5
:10087000462F0E947503611571058105910529F0C8
:100880006F5F7F4F8F4F9F4F9F700E9428056B01B6
:100890007C0126E933E44BE05DE30E948C0520E017
:1008A00030E040E05FE30E948C050E94F00470930A
:1008B0002501609324012EE338EE49E55CE3C7018E
:1008C000B6010E948C0520E030E040E05FE30E942A
:1008D0008C050E94F0047093230160932201E1E0F3
:1008E000809142018111E0E0E195F0E0E15DFE4F91
:1008F000848980680E9450028CE091E00E94AD01E2
:1009000080912401909125010E94020387E191E0EA
:100910000E94AD01E0914201E23008F041C0E15097
:10092000F0E0E15DFE4F848980680E9450028CE017
:1009300091E00E94AD0180912201909123010E94DB
:1009400002038BE191E00E94AD010E9409012B019D
:100950003C018AEFC82ED12CE12CF12C0E94090118
:100960006419750986099709683E734081059105E8
:10097000A8F3F1E0CF1AD108E108F10828EE420E01
:1009800023E0521E611C711CC114D104E104F10466
:1009900029F78114910409F448CF0E94000045CF43
:1009A000E1E0BECFEFE2F1E01382128284E091E059
:1009B000918380838CE084838FEF85838BE08683B3
:1009C00085E0878384E0808783E0818782E0828777
:1009D0001386148615861686178681E00C945602B7
:1009E0000E94F7046894B1110C94860508950E9442
:1009F0006B0588F09F5798F0B92F9927B751B0F041
:100A0000E1F0660F771F881F991F1AF0BA95C9F792
:100A100014C0B13091F00E948505B1E008950C94A6
:100A20008505672F782F8827B85F39F0B93FCCF359
:100A3000869577956795B395D9F73EF4909580950F
:100A4000709561957F4F8F4F9F4F0895E89409C02F
:100A500097FB3EF490958095709561957F4F8F4FF1
:100A60009F4F9923A9F0F92F96E9BB279395F69507
:100A7000879577956795B795F111F8CFFAF4BB0F85
:100A800011F460FF1BC06F5F7F4F8F4F9F4F16C0E9
:100A9000882311F096E911C0772321F09EE8872F73
:100AA000762F05C0662371F096E8862F70E060E02F
:100AB0002AF09A95660F771F881FDAF7880F9695A8
:100AC000879597F9089557FD9058440F551F59F091
:100AD0005F3F71F04795880F97FB991F61F09F3F2B
:100AE00079F087950895121613061406551FF2CF54
:100AF0004695F1DF08C0161617061806991FF1CFA4
:100B000086957105610508940895E894BB276627CA
:100B10007727CB0197F908950E949F050C94100642
:100B20000E94020638F00E94090620F0952311F079
:100B30000C94F9050C94FF0511240C9486050E9471
:100B4000630570F3959FC1F3950F50E0551F629FA9
:100B5000F001729FBB27F00DB11D639FAA27F00D16
:100B6000B11DAA1F649F6627B00DA11D661F829F3D
:100B70002227B00DA11D621F739FB00DA11D621F22
:100B8000839FA00D611D221F749F3327A00D611D3F
:100B9000231F849F600D211D822F762F6A2F112421
:100BA0009F5750409AF0F1F088234AF0EE0FFF1F54
:100BB000BB1F661F771F881F91505040A9F79E3FAB
:100BC000510580F00C94F9050C9486055F3FE4F321
:100BD000983ED4F3869577956795B795F795E79501
:100BE0009F5FC1F7FE2B880F911D9695879597F90A
:100BF000089597F99F6780E870E060E008959FEF9F
:100C000080EC089500240A941616170618060906A3
:100C1000089500240A941216130614060506089572
:100C2000092E0394000C11F4882352F0BB0F40F4FA
:100C3000BF2B11F460FF04C06F5F7F4F8F4F9F4F3A
:100C40000895A1E21A2EAA1BBB1BFD010DC0AA1F0D
:100C5000BB1FEE1FFF1FA217B307E407F50720F025
:100C6000A21BB30BE40BF50B661F771F881F991FA0
:100C70001A9469F760957095809590959B01AC01E9
:100C8000BD01CF010895EE0FFF1F0590F491E02DF7
:100C90000994F894FFCF00000000FC022E015C01D3
:100CA0005B0144697374616E63653A200020636D73
:080CB0000020696E636800007A
:107E0000112484B714BE81FFF0D085E080938100F7
:107E100082E08093C00088E18093C10086E0809377
:107E2000C20080E18093C4008EE0C9D0259A86E02C
:107E300020E33CEF91E0309385002093840096BBD3
:107E4000B09BFECF1D9AA8958150A9F7CC24DD24C4
:107E500088248394B5E0AB2EA1E19A2EF3E0BF2EE7
:107E6000A2D0813461F49FD0082FAFD0023811F036
:107E7000013811F484E001C083E08DD089C08234E0
:107E800011F484E103C0853419F485E0A6D080C0E4
:107E9000853579F488D0E82EFF2485D0082F10E0AE
:107EA000102F00270E291F29000F111F8ED06801E7
:107EB0006FC0863521F484E090D080E0DECF843638
:107EC00009F040C070D06FD0082F6DD080E0C81688
:107ED00080E7D80618F4F601B7BEE895C0E0D1E017
:107EE00062D089930C17E1F7F0E0CF16F0E7DF06D8
:107EF00018F0F601B7BEE89568D007B600FCFDCFD4
:107F0000A601A0E0B1E02C9130E011968C91119780
:107F100090E0982F8827822B932B1296FA010C0160
:107F200087BEE89511244E5F5F4FF1E0A038BF0790
:107F300051F7F601A7BEE89507B600FCFDCF97BE46
:107F4000E89526C08437B1F42ED02DD0F82E2BD052
:107F50003CD0F601EF2C8F010F5F1F4F84911BD097
:107F6000EA94F801C1F70894C11CD11CFA94CF0C13
:107F7000D11C0EC0853739F428D08EE10CD085E9AC
:107F80000AD08FE07ACF813511F488E018D01DD067
:107F900080E101D065CF982F8091C00085FFFCCF94
:107FA0009093C60008958091C00087FFFCCF809118
:107FB000C00084FD01C0A8958091C6000895E0E648
:107FC000F0E098E1908380830895EDDF803219F02E
:107FD00088E0F5DFFFCF84E1DECF1F93182FE3DFCA
:107FE0001150E9F7F2DF1F91089580E0E8DFEE27F6
:047FF000FF270994CA
:027FFE00040479
:00000001FF
