:020000040000FA
:100000000C945D000C9485000C9485000C94850084
:100010000C9485000C9485000C9485000C9485004C
:100020000C9485000C9485000C9485000C9485003C
:100030000C9485000C9485000C9485000C9485002C
:100040000C9474020C9485000C9485000C9485002B
:100050000C9485000C9485000C9485000C9485000C
:100060000C9485000C94850000000008000201003B
:100070000003040700000000000000000000000072
:10008000250028002B0000000000240027002A0083
:10009000040404040404040402020202020203032E
:1000A0000303030301020408102040800102040836
:1000B0001020010204081020600311241FBECFEF9E
:1000C000D8E0DEBFCDBF11E0A0E0B1E0E0E5F7E0B1
:1000D00002C005900D92A232B107D9F721E0A2E249
:1000E000B1E001C01D92A334B207E1F710E0CDE505
:1000F000D0E004C02197FE010E94A003CC35D107B7
:10010000C9F70E94BE020C94A6030C94000090E074
:10011000FC01EC55FF4F249180579F4FFC018491C7
:10012000882399F090E0880F991FFC01EA57FF4F50
:10013000A591B491FC01E458FF4F859194918FB73C
:10014000F894EC91E22BEC938FBF089590E0FC01C2
:10015000E859FF4F2491FC01EC55FF4F3491FC010D
:10016000E057FF4FE491EE23C9F0222339F023300A
:1001700001F1A8F4213019F1223029F1F0E0EE0F5D
:10018000FF1FE458FF4FA591B4918FB7F894EC91FD
:10019000611126C030953E233C938FBF08952730D0
:1001A000A9F02830C9F0243049F7809180008F7D74
:1001B00003C0809180008F7780938000DFCF84B56B
:1001C0008F7784BDDBCF84B58F7DFBCF8091B0006E
:1001D0008F778093B000D2CF8091B0008F7DF9CF20
:1001E0003E2BDACFAF92BF92CF92DF92EF92FF9287
:1001F0000F931F93CF93DF936C017B018B01040F4F
:10020000151FEB015E01AE18BF08C017D10759F0EA
:100210006991D601ED91FC910190F081E02DC6012C
:100220000995892B79F7C501DF91CF911F910F9126
:10023000FF90EF90DF90CF90BF90AF90089508951A
:1002400090E080E00895FC0101900020E9F73197EB
:10025000AF01481B590BBC018BE291E00C94F200FA
:10026000CF93DF93EC0160E08E810E94A60061E0F5
:100270008E810E94A60060E08E810E94A6008BE81D
:1002800091E00197F1F7DF91CF910895CF92DF923E
:10029000EF92FF920F931F93CF93DF936C017C013A
:1002A00087E0E80EF11CD0E0C0E0062F10E0B801B6
:1002B0000C2E02C0759567950A94E2F76170F701FC
:1002C00081917F010E94A6002196C430D10579F763
:1002D000C601DF91CF911F910F91FF90EF90DF90BA
:1002E000CF900C943001CF92DF92EF92FF920F9358
:1002F0001F93CF93DF93EC01F62E642F8C810E9425
:10030000A6008D818F3F19F060E00E94A6000F2D9E
:1003100010E08F8584FF25C06E0187E0C80ED11CD8
:10032000F12CE12CB8010E2C02C0759567950A944A
:10033000E2F76170F60181916F010E94A600FFEF64
:10034000EF1AFF0A88E0E816F10461F7CE01DF91A9
:10035000CF911F910F91FF90EF90DF90CF900C9471
:100360003001B80184E0759567958A95E1F7CE0173
:100370000E9446016F2DCE01DF91CF911F910F9109
:10038000FF90EF90DF90CF900C94460140E0682FF3
:100390008BE291E00C947301CF93DF93823029F4C8
:1003A00090913A01986090933A0180933E011092A7
:1003B0003F0180E48093400180E18093410180E52A
:1003C0008093420180912F010E948700809130012B
:1003D0008F3F11F00E948700809131010E948700B9
:1003E000CBE2D1E09E012B52314080913A0184FD55
:1003F0000AC084E090E02196281739073CF48E81EA
:100400000E948700EFCF88E090E0F5CF8BE39DE07E
:100410000197F1F760E080912F010E94A60060E053
:10042000809131010E94A600809130018F3F19F028
:1004300060E00E94A60080913A0184FD39C063E02B
:100440008BE291E00E944601CBE4D6E4CE01019715
:10045000F1F763E08BE291E00E9446012197F1F70A
:1004600063E08BE291E00E94460183E592E0019710
:10047000F1F762E08BE291E00E94460180913A013F
:1004800080620E94C60184E080933B018CE00E9460
:10049000C60181E00E94C6018BE39FE10197F1F75D
:1004A00082E080933C0186E0DF91CF910C94C601FD
:1004B00080620E94C6018BE496E40197F1F7809177
:1004C0003A0180620E94C60183E592E00197F1F74C
:1004D00080913A0180620E94C601D0CF41E00E9423
:1004E000730181E090E008951F920F920FB60F9272
:1004F00011242F933F938F939F93AF93BF9380913A
:10050000270190912801A0912901B0912A013091F1
:10051000260123E0230F2D3758F50196A11DB11DAB
:10052000209326018093270190932801A09329010D
:10053000B0932A018091220190912301A09124017E
:10054000B09125010196A11DB11D809322019093C8
:100550002301A0932401B0932501BF91AF919F91F6
:100560008F913F912F910F900FBE0F901F90189574
:1005700026E8230F0296A11DB11DD2CFCF93DF93A2
:10058000CDB7DEB7A1970FB6F894DEBF0FBECDBFD3
:10059000789484B5826084BD84B5816084BD85B55E
:1005A000826085BD85B5816085BD80916E0081606A
:1005B00080936E0010928100809181008260809310
:1005C0008100809181008160809381008091800012
:1005D0008160809380008091B10084608093B1003D
:1005E0008091B00081608093B00080917A00846037
:1005F00080937A0080917A00826080937A00809163
:100600007A00816080937A0080917A00806880937C
:100610007A001092C10082E00E94CC018CE091E04F
:100620000E94230188EEC82E83E0D82EE12CF12C05
:100630009AE0492E512C612C712C20E0A22E20E052
:10064000B22EE0913E01E230C8F5E150F0E0E55D08
:10065000FE4F848980680E94C60189E191E00E9472
:1006600023012FB7F89460912701709128018091A0
:10067000290190912A012FBFA70196010E947E03B4
:1006800019A28E010F5D1F4FCA01B901A30192018A
:100690000E947E03605DF80162938F012115310590
:1006A0004105510589F7309719F0CF010E942301C8
:1006B000A114B10431F20E940000C3CFE1E0C6CF23
:1006C000EBE2F1E01382128284E091E09183808377
:1006D0008CE084838FEF85838BE0868385E087833E
:1006E00084E0808783E0818782E082871386148696
:1006F00015861686178681E00C94CC01A1E21A2E8D
:10070000AA1BBB1BFD010DC0AA1FBB1FEE1FFF1FB5
:10071000A217B307E407F50720F0A21BB30BE40B05
:10072000F50B661F771F881F991F1A9469F760954C
:100730007095809590959B01AC01BD01CF01089506
:10074000EE0FFF1F0590F491E02D0994F894FFCF70
:10075000000000006E02F20020011F0148656C6C71
:100760006F20576F726C64210054696D65723A2076
:02077000000087
:107E0000112484B714BE81FFF0D085E080938100F7
:107E100082E08093C00088E18093C10086E0809377
:107E2000C20080E18093C4008EE0C9D0259A86E02C
:107E300020E33CEF91E0309385002093840096BBD3
:107E4000B09BFECF1D9AA8958150A9F7CC24DD24C4
:107E500088248394B5E0AB2EA1E19A2EF3E0BF2EE7
:107E6000A2D0813461F49FD0082FAFD0023811F036
:107E7000013811F484E001C083E08DD089C08234E0
:107E800011F484E103C0853419F485E0A6D080C0E4
:107E9000853579F488D0E82EFF2485D0082F10E0AE
:107EA000102F00270E291F29000F111F8ED06801E7
:107EB0006FC0863521F484E090D080E0DECF843638
:107EC00009F040C070D06FD0082F6DD080E0C81688
:107ED00080E7D80618F4F601B7BEE895C0E0D1E017
:107EE00062D089930C17E1F7F0E0CF16F0E7DF06D8
:107EF00018F0F601B7BEE89568D007B600FCFDCFD4
:107F0000A601A0E0B1E02C9130E011968C91119780
:107F100090E0982F8827822B932B1296FA010C0160
:107F200087BEE89511244E5F5F4FF1E0A038BF0790
:107F300051F7F601A7BEE89507B600FCFDCF97BE46
:107F4000E89526C08437B1F42ED02DD0F82E2BD052
:107F50003CD0F601EF2C8F010F5F1F4F84911BD097
:107F6000EA94F801C1F70894C11CD11CFA94CF0C13
:107F7000D11C0EC0853739F428D08EE10CD085E9AC
:107F80000AD08FE07ACF813511F488E018D01DD067
:107F900080E101D065CF982F8091C00085FFFCCF94
:107FA0009093C60008958091C00087FFFCCF809118
:107FB000C00084FD01C0A8958091C6000895E0E648
:107FC000F0E098E1908380830895EDDF803219F02E
:107FD00088E0F5DFFFCF84E1DECF1F93182FE3DFCA
:107FE0001150E9F7F2DF1F91089580E0E8DFEE27F6
:047FF000FF270994CA
:027FFE00040479
:00000001FF
